:100000000C94E0000C9408010C9408010C94080175
:100010000C9408010C9408010C9408010C9408013C
:100020000C9408010C9408010C9408010C9408012C
:100030000C9408010C9408010C9408010C9408011C
:100040000C94F5050C9408010C9408010C9408011B
:100050000C9408010C9408010C9408010C940801FC
:100060000C9408010C94080100407A10F35A00A087
:10007000724E18090010A5D4E80000E87648170071
:1000800000E40B54020000CA9A3B000000E1F505B1
:10009000000080969800000040420F000000A086FB
:1000A00001000000102700000000E803000000002D
:1000B0006400000000000A000000000001000000D1
:1000C00000002C76D888DC674F0823DFC1DFAE59EB
:1000D000E1B1B796E5E3E453C63AE651997696E87E
:1000E000E6C28426EB898C9B62ED407C6FFCEFBC02
:1000F0009C9F40F2BAA56FA5F490055A2AF75C932D
:100100006B6CF9676DC11BFCE0E40D47FEF520E662
:10011000B500D0ED902E0300943577050080841E45
:10012000080000204E0A000000C80C333333330FA0
:10013000986E12831141EF8D2114893BE65516CF3D
:10014000FEE6DB18D1844B381BF77C1D901DA4BB49
:10015000E424203284725E228100C9F124ECA1E5FE
:100160003D2700000000240027002A0000000000B6
:10017000250028002B000000000023002600290095
:10018000040404040404040402020202020203033D
:100190000303030301020408102040800102040845
:1001A00010200102040810200000000800020100D5
:1001B0000003040700000000000000000B098D0987
:1001C00011241FBECFEFD8E0DEBFCDBF11E0A0E00D
:1001D000B1E0E8E3F1E202C005900D92A03BB10767
:1001E000D9F722E0A0EBB1E001C01D92A535B2071E
:1001F000E1F710E0CFEDD0E004C02197FE010E94AE
:100200008E0ECE3DD107C9F70E943F060C948F1089
:100210000C94000096E0899FD0011124A653BE4F94
:1002200090967C936E935F9791E091969C939197B3
:10023000E0913702F091380290913602992339F01B
:10024000309751F0811108C08091E60109943097F0
:1002500019F05C968C91FACF0895833081F028F4E0
:10026000813099F08230A9F008958730A9F0883064
:10027000C9F08430B1F4809180008F7D03C08091FB
:1002800080008F7780938000089584B58F7784BD38
:10029000089584B58F7DFBCF8091B0008F778093D8
:1002A000B00008958091B0008F7DF9CFCF93DF9398
:1002B000282F30E0F901E855FE4F8491F901EC5602
:1002C000FE4FD491F901E058FE4FC491CC23A1F028
:1002D00081110E942D01EC2FF0E0EE0FFF1FEA5874
:1002E000FE4FA591B491EC91ED2381E090E009F4EB
:1002F00080E0DF91CF91089580E090E0FACF1F93E6
:10030000CF93DF93282F30E0F901E855FE4F849119
:10031000F901EC56FE4FD491F901E058FE4FC4911B
:10032000CC23A9F0162F81110E942D01EC2FF0E0B3
:10033000EE0FFF1FE459FE4FA591B4918FB7F894CB
:10034000EC91111108C0D095DE23DC938FBFDF91B3
:10035000CF911F910895DE2BF8CFCF93DF9390E0DC
:10036000FC01EC56FE4F249180589E4FFC01849175
:100370008823C9F090E0880F991FFC01EE59FE4FC9
:10038000A591B491FC01E459FE4FC591D49161113E
:100390000DC09FB7F8948C91209582238C9388810F
:1003A000282328839FBFDF91CF910895623051F4B5
:1003B0009FB7F8943C91822F809583238C93E8819A
:1003C0002E2BEFCF8FB7F894EC912E2B2C938FBF61
:1003D000EACF3FB7F8948091C6019091C701A091F0
:1003E000C801B091C90126B5A89B05C02F3F19F0DF
:1003F0000196A11DB11D3FBFBA2FA92F982F8827A5
:10040000BC01CD01620F711D811D911D42E0660F7F
:10041000771F881F991F4A95D1F708958F929F9251
:10042000AF92BF92CF92DF92EF92FF924B015C01AD
:100430000E94E9016B017C010E94E9016C197D09B0
:100440008E099F09683E734081059105A8F321E05C
:10045000821A9108A108B10888EEC80E83E0D81E60
:10046000E11CF11C81149104A104B10429F7FF904F
:10047000EF90DF90CF90BF90AF909F908F900895B6
:100480002FB7F8946091C2017091C3018091C401AB
:100490009091C5012FBF08950F931F93CF93DF93C2
:1004A000C82FD62F86E0C89FF0011124E653FE4FD7
:1004B00011A2878D90A181309105F1F058F0823022
:1004C0009105F1F1039709F440C0DF91CF911F919D
:1004D0000F9108956623C9F361E070E08C2F0E94AC
:1004E0000A010E94400260932202709323028093CB
:1004F000240290932502E9CF0E944002009122023B
:10050000109123022091240230912502AB01BC01FD
:10051000401B510B620B730B80913402909135029A
:10052000B0E0A0E084179507A607B70748F462E09B
:1005300070E08C2FDF91CF911F910F910C940A01E5
:1005400063E070E0D111C1CFF4CF70E060E0F1CF93
:10055000862F642F0C94AD01862F642F0C947F019D
:10056000862F0C9456010895AF92BF92CF92DF92DE
:10057000EF92FF920F931F93CF93DF936C017B0158
:100580008B01040F151FEB015E01AE18BF08C017E9
:10059000D10759F06991D601ED91FC910190F0815C
:1005A000E02DC6010995892B79F7C501DF91CF911F
:1005B0001F910F91FF90EF90DF90CF90BF90AF9081
:1005C0000895FC01448155816081718189E392E045
:1005D0000C94B40290E080E00895FC0101900020AA
:1005E000E9F73197AF01481B590BBC0189E392E051
:1005F0000C94B402CF93DF93EC0160E08E810E94F3
:100600007F0161E08E810E947F0160E08E810E9407
:100610007F018BE891E00197F1F7DF91CF91089589
:10062000CF92DF92EF92FF920F931F93CF93DF93BE
:100630006C017C0187E0E80EF11CD0E0C0E0062FE1
:1006400010E0B8010C2E02C0759567950A94E2F788
:100650006170F70181917F010E947F012196C43072
:10066000D10579F7C601DF91CF911F910F91FF90CE
:10067000EF90DF90CF900C94FA02CF92DF92EF923E
:10068000FF920F931F93CF93DF93EC01F62E642F0D
:100690008C810E947F018D818F3F19F060E00E9464
:1006A0007F010F2D10E08F8584FF25C06E0187E04C
:1006B000C80ED11CF12CE12CB8010E2C02C075958E
:1006C00067950A94E2F76170F60181916F010E94CB
:1006D0007F01FFEFEF1AFF0A88E0E816F10461F7E7
:1006E000CE01DF91CF911F910F91FF90EF90DF909E
:1006F000CF900C94FA02B80184E0759567958A95BD
:10070000E1F7CE010E9410036F2DCE01DF91CF9152
:100710001F910F91FF90EF90DF90CF900C941003FA
:1007200040E0682F89E392E00C943D0381E00E9451
:1007300090038BE39FE10197F1F70895CF93DF9347
:10074000823029F4909148029860909348028093F7
:100750004C0210924D0280E480934E0280E180931F
:100760004F0280E58093500261E080913D020E943B
:10077000AD0180913E028F3F19F061E00E94AD0112
:1007800061E080913F020E94AD01C9E3D2E09E0189
:10079000295332408091480284FD0BC084E090E0F0
:1007A00021962817390744F461E08E810E94AD013B
:1007B000EECF88E090E0F4CF8BE39DE00197F1F776
:1007C00060E080913D020E947F0160E080913F02E5
:1007D0000E947F0180913E028F3F19F060E00E94ED
:1007E0007F018091480284FD34C063E089E392E098
:1007F0000E941003CBE4D6E4CE010197F1F763E049
:1008000089E392E00E9410032197F1F763E089E306
:1008100092E00E94100383E592E00197F1F762E015
:1008200089E392E00E9410038091480280620E9456
:10083000900384E0809349028CE00E9490030E9420
:10084000960382E080934A0286E0DF91CF910C9478
:10085000900380620E9490038BE496E40197F1F785
:100860008091480280620E94900383E592E00197A4
:10087000F1F78091480280620E949003D5CF909159
:100880004C02891710F08FEF890FE82FF0E0E75C3A
:10089000FD4F848980680C94900341E00E943D03E1
:1008A00081E090E008950F931F93CF93DF93EC01C5
:1008B00088819981009759F02A813B812617370753
:1008C00030F081E0DF91CF911F910F9108958B015E
:1008D0006F5F7F4F0E94B90F009759F0998388830B
:1008E0001B830A832C813D81232B59F7FC01108245
:1008F000E8CF80E0E7CFEF92FF920F931F93CF9363
:10090000DF936115710541F480E0DF91CF911F9174
:100910000F91FF90EF90089541155105B1F07B01C3
:10092000EC010C811D81040F151FB8010E945304B6
:10093000882351F3288139818C819D81B701820FF1
:10094000931F0E9488101D830C8381E0DECFCF931C
:10095000DF93EC0188819981009711F00E94300F9C
:10096000198218821D821C821B821A82DF91CF910C
:100970000895EF92FF920F931F93CF93DF93EC01B3
:100980007B01198218821B821A821D821C82FB0144
:1009900001900020E9F731978F01061B170BB80172
:1009A0000E945304811109C0CE01DF91CF911F91A4
:1009B0000F91FF90EF900C94A7041D830C83B70157
:1009C00088819981DF91CF911F910F91FF90EF90D6
:1009D0000C948810EF92FF920F931F93CF93DF93A5
:1009E0008C017B01EB0109900020E9F72197C61BE0
:1009F000D70BBE010E945304811109C0C801DF91C9
:100A0000CF911F910F91FF90EF900C94A704F801E4
:100A1000D583C483B70180819181DF91CF911F91EC
:100A20000F91FF90EF900C948810CF93DF93EC011F
:100A3000FB0144815581608171810E947B04811199
:100A400003C0CE010E94A704CE01DF91CF9108958B
:100A5000FC0180819181009711F00C94300F089572
:100A6000CF93DF9300D000D000D0CDB7DEB70E9487
:100A7000960380E00E943F046AE371E0CE01019694
:100A80000E94B90460EB71E0CE0101960E94150549
:100A90000E94E102CE0101960E94280581E00E9499
:100AA0003F0462E471E0CE0101960E94B9046AEB52
:100AB00071E0CE0101960E9415050E94E102CE016F
:100AC00001960E94280526960FB6F894DEBF0FBE49
:100AD000CDBFDF91CF910895CF93DF93CDB7DEB730
:100AE000A8970FB6F894DEBF0FBECDBF0E94FF09D6
:100AF0001CA21BA21EA21DA218A61FA227E233E25F
:100B000040E050E00E94820D68517C4F8F4F9F4F14
:100B10002AE0AE014F5F5F4F0E94620ABE016F5F25
:100B20007F4FCE0183960E94EA048091B00190919C
:100B3000B101009709F442C06BA17CA16115710558
:100B4000D9F14091B2015091B3012FA138A54217BC
:100B5000530790F10E9488108FA198A59093B5013A
:100B60008093B40118A61FA2CE0183960E94280587
:100B700067E571E08AEB91E00E94EA0483E090E08F
:100B8000909319018093180181E08093C0010E9425
:100B900030050E9440026093B6017093B7018093C4
:100BA000B8019093B901A8960FB6F894DEBF0FBEB6
:100BB000CDBFDF91CF9108950E94300F8BA19CA1F2
:100BC0009093B1018093B0018DA19EA19093B30148
:100BD0008093B2018FA198A59093B5018093B40141
:100BE0001CA21BA21EA21DA2BDCF1F920F920FB668
:100BF0000F9211242F933F938F939F93AF93BF93A3
:100C00008091C2019091C301A091C401B091C5012E
:100C10003091C10123E0230F2D3758F50196A11D16
:100C2000B11D2093C1018093C2019093C301A09391
:100C3000C401B093C5018091C6019091C701A091F4
:100C4000C801B091C9010196A11DB11D8093C601D3
:100C50009093C701A093C801B093C901BF91AF9110
:100C60009F918F913F912F910F900FBE0F901F90EA
:100C7000189526E8230F0296A11DB11DD2CFCF9360
:100C8000DF93CDB7DEB7A7970FB6F894DEBF0FBEE0
:100C9000CDBF789484B5826084BD84B5816084BD05
:100CA00085B5826085BD85B5816085BD80916E000A
:100CB000816080936E00109281008091810082603B
:100CC0008093810080918100816080938100809178
:100CD00080008160809380008091B1008460809367
:100CE000B1008091B00081608093B00080917A0063
:100CF000846080937A0080917A00826080937A0089
:100D000080917A00816080937A0080917A00806877
:100D100080937A001092C10082E00E949E0362E0FC
:100D200082E00E94AD010E946C05412C512C3201E1
:100D3000439440E0242E40E0342E82E00E9456018D
:100D4000892B41F40E946C0568EC70E080E090E033
:100D50000E940E028091C001882309F427C141E05E
:100D6000409336020E944002009126021091270211
:100D70002091280230912902AB01BC01401B510B8C
:100D8000620B730B8091320290913302B0E0A0E0CD
:100D900084179507A607B70708F00FC110E08091E8
:100DA0003002181760F4E0912C02F0912D02E10F4F
:100DB000F11D62E080810E94AD011F5FF0CF912C98
:100DC00080913102981608F061C0E92CF12CE09175
:100DD0002E02F0912F02EE0DFF1D61E080810E9436
:100DE000AD01E0912E02F0912F02EE0DFF1D60E0AB
:100DF00080810E947F01D301C201092C04C0880FA9
:100E0000991FAA1FBB1F0A94D2F75C016C01C09402
:100E1000D094812C80913002881608F5082D10E0BE
:100E2000E0912C02F0912D02E00FF11F80810E94D1
:100E300056010C5F1F4F000F111FF801E653FE4FC4
:100E4000892B41F4808191818A299B299183808318
:100E50008394E0CF808191818C219D21F7CFE09117
:100E60002E02F0912F02EE0DFF1D61E080810E94A5
:100E70007F0180912E0290912F02E80EF91E60E012
:100E8000F70180810E94AD0193949ACF0AEC11E0A2
:100E9000F801878D90A1892B31F4148E8FEF9FEF8D
:100EA000968F858F11A2369692E0E630F90789F782
:100EB000F12C80913002F81608F053C0E12CCF2CB1
:100EC000D12CCC0CDD1CF601EE52FE4F6F012091AF
:100ED0003102E21608F043C0F601608171810E2CE8
:100EE00002C0769567950A94E2F7F29E900111246C
:100EF0002E0D311DEAECF1E080E0458D568D241772
:100F0000350709F427C18F5F36968A30B1F760FF45
:100F100024C0EAECF1E090E080E0448D411118C07B
:100F2000E0912A02F0912B02E20FF31F608146E06C
:100F3000489FF001499FF00D1124E653FE4F648F46
:100F4000368F258F10A2178E61E00E944C0205C0DB
:100F5000019636968A30910501F7E394B8CFF39461
:100F6000A8CFF12CF80181A18111F82E0A5F1F4F43
:100F7000F2E006301F07B1F70E944002609326029C
:100F8000709327028093280290932902FF20A9F0F2
:100F90008091EB01882389F08091E9019091EA0129
:100FA000019759F48091E60181110AC0211431049E
:100FB00009F4C3CE0E940000C0CE10923602F6CFD4
:100FC000833209F0A8C00E9440026B017C0180902E
:100FD000B6019090B701A090B801B090B9010E94FD
:100FE000960380E00E943F042091BE013091BF0132
:100FF0008091B4019091B50128173907E9F48091E7
:10100000BA019091BB016091B0017091B10100975C
:1010100009F4A2C06115710539F4232B09F4AAC0A3
:10102000FC01808190E0A3C00E947F10A0C0CE018F
:1010300082960E94A704C8C080911801909119015E
:1010400001979093190180931801181619060CF056
:1010500048C08AE591E00E94ED0281E00E943F04D1
:1010600080911801909119011BA21AA21DA21CA225
:101070001FA21EA24AE0BE016F5F7F4F0E94570A67
:10108000BE016F5F7F4FCE0182960E94EA046BE63D
:1010900071E0CE0101960E94B904BE016E5D7F4FE2
:1010A000CE0101960E9415050E94E102CE01019633
:1010B0000E942805CE0182960E94280567E571E00E
:1010C0008AEB91E00E94EA0460ED77E080E090E036
:1010D0000E940E028091C001882379F00E943005A1
:1010E00065CF87E791E00E94ED0281E00E943F0416
:1010F00086E891E00E94ED028BC00E94960382E98F
:1011000091E00E94ED0281E00E943F0481EA91E0BB
:101110000E94ED024BCF8A3239F467E571E08AEB29
:1011200091E00E94EA04DACF282F082E000C330B3E
:10113000205331092A30310508F038CF89831A82CB
:1011400041E050E0BE016F5F7F4F8AEB91E00E946B
:101150007B04C4CF6170F9CE6115710559F0232B62
:1011600049F0FB01808190E0919581959109892B4F
:1011700009F062CF88E491E00E94ED0281E00E94D4
:101180003F041BA21AA21DA21CA21FA21EA2C701DD
:10119000B601681979098A099B090E94F40C20E0BC
:1011A00030E04AE754E40E941C0E8E010F5F1F4F8F
:1011B00022E044E00E949509009709F438CFBC0171
:1011C000CE0182960E94EA0461E571E0CE010196AB
:1011D0000E94B904BE016E5D7F4FCE0101960E9450
:1011E00015058C0141E050E068E571E00E947B0448
:1011F000811103C0C8010E94A704C8010E94E10236
:10120000CE0101960E942805CE0182960E942805F3
:101210001092C00159CF10923C0210923B0282E31F
:1012200091E090933A02809339028CE080933D02E2
:101230008FEF80933E0287E080933F0286E08093A9
:10124000400285E08093410284E08093420283E083
:10125000809343021092440210924502109246027B
:10126000109247021092480281E00E949E03109261
:10127000CC011092D0011092CF011092D10188E2DE
:1012800091E09093CB018093CA01E6EEF1E01082E9
:10129000148213821582369682E0E232F807B9F79B
:1012A00084E091E090932D0280932C0280E091E005
:1012B00090932F0280932E0284E0809330028093DB
:1012C000310288E091E090932B0280932A028AE019
:1012D00090E0909333028093320284EF91E09093F8
:1012E0003502809334021092380210923702109225
:1012F00026021092270210922802109229021092C0
:10130000360267E571E080EB91E00E94B90467E581
:1013100071E08AEB91E00C94B9048AEB91E00E94B1
:10132000280580EB91E00C942805EF920F931F9312
:10133000CF93DF93E80134E047FD34E1042E000C45
:10134000550B57FF03C0519541955109E32E022FCC
:10135000242FAE010E94AD0ACE01DF91CF911F91E3
:101360000F91EF9008958F929F92AF92BF92CF927C
:10137000DF92EF92FF92CF93DF93EC016881798146
:101380008A819B81611571058105910521F464E2D3
:1013900079ED8BE597E02DE133EF41E050E00E94DD
:1013A000820D49015A019B01AC01A7EAB1E40E94F8
:1013B000A10D6B017C01ACEEB4EFA50194010E947C
:1013C000AF0DC60ED71EE81EF91EF7FE06C081E05F
:1013D000C81AD108E10880E8F80AC882D982EA82EE
:1013E000FB82C701B6019F77DF91CF91FF90EF900D
:1013F000DF90CF90BF90AF909F908F9008958F9285
:101400009F92AF92BF92CF92DF92EF92FF92609144
:101410001A0170911B0180911C0190911D016115B1
:1014200071058105910521F464E279ED8BE597E082
:101430002DE133EF41E050E00E94820D49015A0155
:101440009B01AC01A7EAB1E40E94A10D6B017C01F4
:10145000ACEEB4EFA50194010E94AF0DC60ED71EED
:10146000E81EF91EF7FE06C081E0C81AD108E1089F
:1014700080E8F80AC0921A01D0921B01E0921C0188
:10148000F0921D01C701B6019F77FF90EF90DF90AA
:10149000CF90BF90AF909F908F90089560931A0166
:1014A00070931B0180931C0190931D010895BB272D
:1014B0004A3031F4992322F4BDE2909581959F4FF3
:1014C0000C94940ABB272A3051F4992342F4BDE2CC
:1014D00090958095709561957F4F8F4F9F4F0C949D
:1014E000720ABB27FA01A62F6217710581059105C3
:1014F000330B30FB66F0AA27660F771F881F991FF2
:10150000AA1FA21710F0A21B63953850A9F7A05D7F
:10151000AA3308F0A95DA19336F7B111B1931082F7
:10152000CA010C94E40CBB27FB015527AA27880F9E
:10153000991FAA1FA41710F0A41B83955051B9F747
:10154000A05DAA3308F0A95DA193009779F7B111C6
:10155000B1931192CB010C94E40CA9E0B0E0E3EB61
:10156000FAE00C94BA0D6A01F22EB02E102FFBE3B4
:10157000AF2EA01608F41BE31F5F012F27E0AE017A
:101580004F5F5F4F0E940C0CBC018981982F9970AE
:10159000913009F43FC09BE2E1FC04C09E2D9170A4
:1015A000E0FC3AC05E2D5071E82FE87083FF46C022
:1015B00084E0911101C083E0EF2DE81B8F1508F046
:1015C000E0E0D6018E2F20E2552351F1992329F036
:1015D000D6019C93C60101966C0196012D5F3F4F89
:1015E000E2FE24C08EE4D6018C9391E411969C9384
:1015F000119712968C93D9018E2F90E281111BC006
:10160000E20FF32FF11D10828EEF9FEF2996ECE091
:101610000C94D60D9DE2C6CF90E2C4CF2D9381509D
:101620008111FCCFCE0ED11CE0E0D0CF8EE6D601EA
:101630008C9391E6DBCF9D938150E0CF482F44708F
:1016400082FF3DC084E0911101C083E08F1510F44A
:10165000EF2DE81BD6018E2F20E2552309F19923A7
:1016600029F0D6019C93C60101966C0196012D5F6D
:101670003F4FE2FE1BC089E4D6018C938EE41196A5
:101680008C93119786E412968C93D9018E2F90E259
:10169000882309F4B5CF9D938150FACF2D938150C3
:1016A0008111FCCFCE0ED11CE0E0D9CF89E6D60166
:1016B0008C938EE611968C93119786E6E4CF9B016E
:1016C00077FF02C030E020E0A1E0B0E0911102C05D
:1016D000B0E0A0E0F9013196AE0FBF1F8B2C912C2A
:1016E000BB2009F461C05401EFEFAE1ABE0AAA0D87
:1016F000BB1DFA161B0619F014F04F2D4A1B511191
:1017000088C0E3FC59C07601A42FB0E2A1114FC0FC
:10171000C40ED11C992309F45BC040E0D601119698
:10172000F60190836D01552309F448C0012F060F7F
:101730009A81582F507184FF03C0913309F40150EE
:1017400010160CF047C0093008F008E0EEE2FE2E5B
:101750005B01A01AB10885019194819491082F3FF3
:10176000320729F4D601FC92F60131966F01621717
:10177000730794F1021713077CF5DB01A21BB30B6F
:10178000AA24A394B12CAC0EBD1EAA0DBB1D1196AC
:101790008C9121503109D601119628153905F4F0A4
:1017A000F60180836D01DBCFB12CA12CA0CFF70116
:1017B000B1937F01A150AACF9111B0CFD601942F40
:1017C00050E302C05D9391509111FCCFC40ED11C27
:1017D00040E0ACCF01E0BACF80E3DBCF6217730704
:1017E00031F4963388F4953311F4552369F0F601FA
:1017F0008083FD01842F90E2811108C0A40FB11DE8
:101800001C9290E080E002CF81E3F1CF9193815070
:10181000F3CF911183CF8ACF283008F027E0332708
:10182000DA01990F311D87FD916000966105710500
:1018300039F432602E5F3D9330E32A95E1F7089545
:101840009F3F30F080387105610509F03C5F3C5FD7
:101850003D93913008F08068911DDF93CF931F93E3
:101860000F93FF92EF92192F987F9695E92F9695F7
:101870009695E90FFF27EE53FF4F99273327EE2464
:10188000FF24A701E70105900894079428F4360F78
:10189000E71EF81E491F511D660F771F881F991FED
:1018A0000694A1F70590079428F4E70EF81E491F47
:1018B000561FC11D770F881F991F661F0694A1F739
:1018C0000590079428F4F80E491F561FC71FD11D15
:1018D000880F991F661F771F0694A1F7059007943C
:1018E00020F4490F561FC71FD81F990F661F771F77
:1018F000881F0694A9F784911095177041F0D6952A
:10190000C79557954795F794E7941A95C1F7E8E678
:10191000F0E0689415901591359165919591059039
:101920007FE27395E118F10A430B560BC90BD009FE
:10193000C0F7E10CF11E431F561FC91FD01D7EF4D6
:10194000703311F48A95E6CFE894015030F0080F17
:101950000AF40027021708F4202F2395022F7A3368
:1019600028F079E37D932A95E9F710C07D932A95B5
:1019700089F6069497956795379517951794E1180A
:10198000F10A430B560BC90BD00998F023957E91B1
:1019900073957A3308F070E37C932013B8F77E9147
:1019A00070617D9330F0839571E37D9370E32A95A8
:1019B000E1F71124EF90FF900F911F91CF91DF91EC
:1019C000992787FD90950895DC01FC01672F71919F
:1019D0007723E1F7329704C07C916D937083629115
:1019E000AE17BF07C8F30895E89409C097FB3EF40B
:1019F00090958095709561957F4F8F4F9F4F99235C
:101A0000A9F0F92F96E9BB279395F69587957795D9
:101A10006795B795F111F8CFFAF4BB0F11F460FF99
:101A20001BC06F5F7F4F8F4F9F4F16C0882311F0F1
:101A300096E911C0772321F09EE8872F762F05C005
:101A4000662371F096E8862F70E060E02AF09A95A0
:101A5000660F771F881FDAF7880F9695879597F995
:101A6000089597F99F6780E870E060E008959FEF20
:101A700080EC089500240A94161617061806090625
:101A8000089500240A9412161306140605060895F4
:101A9000092E0394000C11F4882352F0BB0F40F47C
:101AA000BF2B11F460FF04C06F5F7F4F8F4F9F4FBC
:101AB000089557FD9058440F551F59F05F3F71F03E
:101AC0004795880F97FB991F61F09F3F79F08795A5
:101AD0000895121613061406551FF2CF4695F1DF2E
:101AE00008C0161617061806991FF1CF86957105BE
:101AF000610508940895E894BB2766277727CB01F2
:101B000097F90895052E97FB1EF400940E94990DF5
:101B100057FD07D00E94EB0D07FC03D04EF40C9448
:101B2000990D50954095309521953F4F4F4F5F4F00
:101B3000089590958095709561957F4F8F4F9F4F39
:101B400008950E940D0EA59F900DB49F900DA49F27
:101B5000800D911D11240895B7FF0C94A10D0E94D2
:101B6000A10D821B930B08952F923F924F925F928B
:101B70006F927F928F929F92AF92BF92CF92DF929D
:101B8000EF92FF920F931F93CF93DF93CDB7DEB702
:101B9000CA1BDB0B0FB6F894DEBF0FBECDBF099496
:101BA0002A88398848885F846E847D848C849B84ED
:101BB000AA84B984C884DF80EE80FD800C811B81FB
:101BC000AA81B981CE0FD11D0FB6F894DEBF0FBE2A
:101BD000CDBFED010895A1E21A2EAA1BBB1BFD018A
:101BE0000DC0AA1FBB1FEE1FFF1FA217B307E407FC
:101BF000F50720F0A21BB30BE40BF50B661F771F54
:101C0000881F991F1A9469F7609570958095909533
:101C10009B01AC01BD01CF010895A29FB001B39F0C
:101C2000C001A39F700D811D1124911DB29F700DE5
:101C3000811D1124911D08950E94300E0C94480DB1
:101C40000E94410D58F00E943A0D40F029F45F3F88
:101C500029F00C94310D51110C947C0D0C94370D1E
:101C60000E94590D68F39923B1F3552391F3951B05
:101C7000550BBB27AA2762177307840738F09F5FAD
:101C80005F4F220F331F441FAA1FA9F335D00E2E1A
:101C90003AF0E0E832D091505040E695001CCAF787
:101CA0002BD0FE2F29D0660F771F881FBB1F26174A
:101CB00037074807AB07B0E809F0BB0B802DBF0121
:101CC000FF2793585F4F3AF09E3F510578F00C94F0
:101CD000310D0C947C0D5F3FE4F3983ED4F3869570
:101CE00077956795B795F7959F5FC9F7880F911D11
:101CF0009695879597F90895E1E0660F771F881FFD
:101D0000BB1F621773078407BA0720F0621B730BAF
:101D1000840BBA0BEE1F88F7E0950895EE0FFF1FB6
:101D20000590F491E02D09940F931F93CF93DF93C7
:101D30008230910510F482E090E0E0915302F0913E
:101D4000540230E020E0B0E0A0E0309799F4211593
:101D5000310509F44AC0281B390B24303105D8F568
:101D60008A819B816115710589F1FB0193838283CF
:101D7000FE0111C04081518102811381481759072A
:101D8000E0F04817590799F4109761F012960C93F8
:101D9000129713961C933296CF01DF91CF911F912A
:101DA0000F9108950093530210935402F4CF21151C
:101DB000310551F04217530738F0A901DB019A01B0
:101DC000BD01DF01F801C1CFEF01F9CF90935402BB
:101DD00080935302CDCFFE01E20FF31F81939193C5
:101DE0002250310939832883D7CF20915102309175
:101DF0005202232B41F42091200130912101309394
:101E000052022093510220911E0130911F01211591
:101E1000310541F42DB73EB7409122015091230185
:101E2000241B350BE0915102F0915202E217F307A7
:101E3000A0F42E1B3F0B2817390778F0AC014E5F3A
:101E40005F4F2417350748F04E0F5F1F5093520223
:101E500040935102819391939FCFF0E0E0E09CCFBB
:101E6000CF93DF930097E9F0FC013297138212823F
:101E7000A0915302B0915402ED0130E020E01097A0
:101E8000A1F420813181820F931F20915102309162
:101E900052022817390709F061C0F0935202E0930B
:101EA0005102DF91CF910895EA01CE17DF07E8F5DF
:101EB0004A815B819E0141155105B1F7E901FB8320
:101EC000EA8349915991C40FD51FEC17FD0761F4BE
:101ED000808191810296840F951FE90199838883FF
:101EE000828193819B838A83F0E0E0E012968D915A
:101EF0009C9113970097B9F52D913C911197CD01C5
:101F00000296820F931F209151023091520228179E
:101F1000390739F6309751F5109254021092530256
:101F2000B0935202A0935102BCCFD383C2834081AD
:101F30005181840F951FC817D90761F44E5F5F4F19
:101F400088819981480F591F518340838A819B81E1
:101F5000938382832115310509F0B0CFF0935402A9
:101F6000E09353029ECFFD01DC01C0CF13821282A9
:101F7000D7CFB0E0A0E0EFEBFFE00C94B60D8C0102
:101F8000009751F4CB010E94940E8C01C801CDB78B
:101F9000DEB7E0E10C94D20DFC01E60FF71F9C01C7
:101FA00022503109E217F30708F49DC0D901CD9101
:101FB000DC911197C617D70798F0C530D10530F3DB
:101FC000CE0104978617970708F3C61BD70B2297F5
:101FD000C193D1936D937C93CF010E94300FD6CFE4
:101FE0005B01AC1ABD0A4C018C0E9D1EA0915302E0
:101FF000B0915402512C412CF12CE12C109731F569
:1020000080915102909152028815990509F05CC0A7
:102010004616570608F058C080911E0190911F0186
:10202000009741F48DB79EB7409122015091230152
:10203000841B950BE817F90708F055C0F09352027E
:10204000E0935102F90171836083A0CF8D919C913F
:10205000119712966C90129713967C901397A8156F
:10206000B90559F56C0142E0C40ED11CCA14DB0459
:1020700020F1AC014A195B09DA011296159780F03C
:102080006282738251834083D9016D937C93E11402
:10209000F10471F0D7011396FC93EE93129776CF6B
:1020A00022968C0F9D1FF90191838083F301EFCF5E
:1020B000F0935402E093530269CF4816590608F48E
:1020C0002C017D01D3019ACFCB010E94940E7C019B
:1020D000009749F0AE01B8010E947610C8010E9435
:1020E000300F870153CF10E000E050CFFB01DC013F
:1020F00002C001900D9241505040D8F70895FB0165
:10210000DC018D91019080190110D9F3990B08958C
:10211000FB01DC0101900D920020E1F7089510E031
:10212000CFEDD0E004C0FE010E948E0E2196C03E8D
:08213000D107C9F7F894FFCFB5
:1021380008090A0B100F0E1131323341343536427B
:10214800373839432A3023440300010000000000D7
:102158005502800000000000A802AC02B002000096
:1021680000004D04B402EA02B302456E7465723A87
:102178002000596F753A2000436F727265637421AD
:102188000054696D653A2000730057726F6E6721BD
:102198002054727920616761696E0052656D6169CA
:1021A8006E696E673A20004E6F206D6F72652074FD
:1021B8007269657321005072657373207265736567
:1021C8007400507265737320726573657420746F40
:1021D800007374617274206E65772074657374007F
:00000001FF
