:020000040000FA
:100000000C9463000C948B000C948B000C948B006C
:100010000C948B000C948B000C948B000C948B0034
:100020000C948B000C948B000C948B000C948B0024
:100030000C948B000C948B000C948B000C948B0014
:100040000C9424050C948B000C948B000C948B0066
:100050000C948B000C948B000C948B000C948B00F4
:100060000C948B000C948B000000000024002700EF
:100070002A0000000000250028002B0000000000DE
:1000800023002600290004040404040404040202DA
:100090000202020203030303030301020408102007
:1000A0004080010204081020010204081020000012
:1000B0000008000201000003040700000000000027
:1000C0000000F808820911241FBECFEFD8E0DEBF80
:1000D000CDBF22E0A6E9B1E001C01D92AB33B2076B
:1000E000E1F711E0A0E0B1E0E0E4F8E102C0059042
:1000F0000D92A639B107D9F710E0C2E6D0E004C0EE
:100100002197FE010E941B0AC136D107C9F70E9440
:100110006E050C94130C0C94000096E0899FD0019E
:100120001124A655BE4F90967C936E935F9791E0F5
:1001300091969C939197E0911702F09118029091FB
:100140001602992339F0309751F0811108C080913F
:10015000C6010994309719F05C968C91FACF0895F6
:10016000CF92DF92EF92FF920F931F9396E0899FB9
:10017000F0011124E655FE4F11A2278D30A1213048
:10018000310551F178F02230310509F451C02330A6
:10019000310509F452C01F910F91FF90EF90DF904D
:1001A000CF9008956623B9F361E070E00E948D005E
:1001B0002FB7F8948091A6019091A701A091A80172
:1001C000B091A9012FBF8093020290930302A093E4
:1001D0000402B0930502DFCF9FB7F894C090A60148
:1001E000D090A701E090A801F090A9019FBF0091D5
:1001F0000202109103022091040230910502C01AFC
:10020000D10AE20AF30A009114021091150230E0BB
:1002100020E00C151D052E053F0550F462E070E04E
:100220001F910F91FF90EF90DF90CF900C948D0075
:100230006111B1CF63E070E0F3CF70E060E0F0CF28
:10024000833081F028F4813099F08230A9F008954C
:100250008730A9F08830C9F08430B1F480918000F3
:100260008F7D03C0809180008F77809380000895F8
:1002700084B58F7784BD089584B58F7DFBCF809141
:10028000B0008F778093B00008958091B0008F7D8B
:10029000F9CFCF93DF93282F30E0F901E255FF4FDC
:1002A0008491F901E656FF4FD491F901EA57FF4FC7
:1002B000C491CC23A1F081110E942001EC2FF0E029
:1002C000EE0FFF1FE458FF4FA591B491EC91ED2381
:1002D00081E090E009F480E0DF91CF91089580E023
:1002E00090E0FACF1F93CF93DF93282F30E0F901EE
:1002F000E255FF4F8491F901E656FF4FD491F90181
:10030000EA57FF4FC491CC23A9F0162F81110E9408
:100310002001EC2FF0E0EE0FFF1FEE58FF4FA591EC
:10032000B4918FB7F894EC91111108C0D095DE23E9
:10033000DC938FBFDF91CF911F910895DE2BF8CF13
:10034000CF93DF9390E0FC01E656FF4F24918A574C
:100350009F4FFC0184918823C9F090E0880F991F7A
:10036000FC01E859FF4FA591B491FC01EE58FF4FF5
:10037000C591D49161110DC09FB7F8948C912095CF
:1003800082238C938881282328839FBFDF91CF917C
:100390000895623051F49FB7F8943C91822F809574
:1003A00083238C93E8812E2BEFCF8FB7F894EC91B9
:1003B0002E2B2C938FBFEACF3FB7F8948091A201E8
:1003C0009091A301A091A401B091A50126B5A89B8D
:1003D00005C02F3F19F00196A11DB11D3FBFBA2FD7
:1003E000A92F982F8827BC01CD01620F711D811D97
:1003F000911D42E0660F771F881F991F4A95D1F71C
:1004000008958F929F92AF92BF92CF92DF92EF9218
:10041000FF924B015C010E94DC016B017C010E9498
:10042000DC016C197D098E099F09683E73408105C6
:100430009105A8F321E0821A9108A108B10888EE7D
:10044000C80E83E0D81EE11CF11C81149104A104A4
:10045000B10429F7FF90EF90DF90CF90BF90AF905D
:100460009F908F900895862F642F0C94A001862F63
:10047000642F0C947201862F0C944901AF92BF92A5
:10048000CF92DF92EF92FF920F931F93CF93DF9360
:100490006C017B018B01040F151FEB015E01AE188F
:1004A000BF08C017D10759F06991D601ED91FC91B1
:1004B0000190F081E02DC6010995892B79F7C501DE
:1004C000DF91CF911F910F91FF90EF90DF90CF9030
:1004D000BF90AF900895FC01448155816081718186
:1004E0008FE192E00C943E02089590E080E0089540
:1004F0008F929F92AF92BF920F931F93CF93DF93F0
:10050000CDB7DEB7A1970FB6F894DEBF0FBECDBF53
:1005100019A2423008F44AE08E010F5D1F4F842E6D
:10052000912CB12CA12CA50194010E94F909E62F70
:10053000B901CA01EA3044F5E05DD801EE938D01BE
:10054000232B242B252B79F790E080E0109769F07E
:10055000FD0101900020E9F73197AF014A1B5B0BC9
:10056000BD018FE192E00E943E02A1960FB6F89481
:10057000DEBF0FBECDBFDF91CF911F910F91BF9016
:10058000AF909F908F900895E95CD7CFFC010190C8
:100590000020E9F73197AF01481B590BBC018FE1EF
:1005A00092E00C943E02FC0180819181009711F051
:1005B0000C94BD0A0895CF93DF93EC0160E08E8127
:1005C0000E94720161E08E810E94720160E08E8162
:1005D0000E9472018BE891E00197F1F7DF91CF91D2
:1005E0000895CF92DF92EF92FF920F931F93CF93D4
:1005F000DF936C017C0187E0E80EF11CD0E0C0E0E5
:10060000062F10E0B8010C2E02C0759567950A946C
:10061000E2F76170F70181917F010E9472012196DA
:10062000C430D10579F7C601DF91CF911F910F91A9
:10063000FF90EF90DF90CF900C94DB02CF92DF928F
:10064000EF92FF920F931F93CF93DF93EC01F62E5F
:10065000642F8C810E9472018D818F3F19F060E0C0
:100660000E9472010F2D10E08F8584FF25C06E015E
:1006700087E0C80ED11CF12CE12CB8010E2C02C071
:10068000759567950A94E2F76170F60181916F01A3
:100690000E947201FFEFEF1AFF0A88E0E816F104EA
:1006A00061F7CE01DF91CF911F910F91FF90EF90F5
:1006B000DF90CF900C94DB02B80184E075956795CC
:1006C0008A95E1F7CE010E94F1026F2DCE01DF91F4
:1006D000CF911F910F91FF90EF90DF90CF900C94EE
:1006E000F10240E0682F8FE192E00C941E0381E05C
:1006F0000E9471038BE39FE10197F1F70895CF9377
:10070000DF93823029F490912E02986090932E020C
:10071000809332021092330280E48093340280E1AD
:100720008093350280E58093360261E08091230258
:100730000E94A001809124028F3F19F061E00E9485
:10074000A00161E0809125020E94A001CFE1D2E0EA
:100750009E012F51324080912E0284FD0BC084E017
:1007600090E021962817390744F461E08E810E94B9
:10077000A001EECF88E090E0F4CF8BE39DE00197FD
:10078000F1F760E0809123020E94720160E08091A5
:1007900025020E947201809124028F3F19F060E0CF
:1007A0000E94720180912E0284FD34C063E08FE1CB
:1007B00092E00E94F102CBE4D6E4CE010197F1F77A
:1007C00063E08FE192E00E94F1022197F1F763E08C
:1007D0008FE192E00E94F10283E592E00197F1F748
:1007E00062E08FE192E00E94F10280912E0280622D
:1007F0000E94710384E080932F028CE00E947103B9
:100800000E94770382E08093300286E0DF91CF91EF
:100810000C94710380620E9471038BE496E401974B
:10082000F1F780912E0280620E94710383E592E0CD
:100830000197F1F780912E0280620E947103D5CF5B
:1008400090913202891710F08FEF890FE82FF0E0B6
:10085000E15EFD4F848980680C94710341E00E9441
:100860001E0381E090E00895CF92DF92EF92FF9215
:100870006C01990FEE08FF08F7FE16C041E06DE22B
:100880008FE192E00E941E0366277727CB016C1947
:100890007D098E099F094AE00E9478020196FF9027
:1008A000EF90DF90CF9008954AE0C701B601FF9026
:1008B000EF90DF90CF900C9478020F931F93CF931B
:1008C000DF93EC0188819981009759F02A813B815F
:1008D0002617370730F081E0DF91CF911F910F91FC
:1008E00008958B016F5F7F4F0E94460B009759F070
:1008F000998388831B830A832C813D81232B59F79D
:10090000FC011082E8CF80E0E7CFEF92FF920F93D7
:100910001F93CF93DF93EC017B018A01BA010E9400
:100920005D0428813981811114C02115310519F028
:10093000C9010E94BD0A198218821D821C821B8275
:100940001A82CE01DF91CF911F910F91FF90EF900E
:1009500008951D830C83B701C9010E940C0CF1CFCF
:10096000FB0101900020E9F73197AF01461B570BBF
:100970000C948504CF92DF92EF92FF920F931F9316
:10098000CF93DF93EC016B017A014617570720F4F0
:100990008D2D6A01E62EF82E198218821B821A828A
:1009A0001D821C8250E040E06AE671E0CE010E94A8
:1009B000850400911D0210911E02C016D10600F59B
:1009C000E016F10608F48701E0911902F0911A028D
:1009D000E00FF11FF08010826091190270911A02ED
:1009E0006C0D7D1D61157105A9F0CE010E94B0044A
:1009F0008091190290911A02080F191FF801F082D4
:100A0000CE01DF91CF911F910F91FF90EF90DF907A
:100A1000CF90089588819981009711F00E94BD0AB6
:100A2000198218821D821C821B821A82E1CF6AE61B
:100A300071E089E192E00E94B00481E00E9420040C
:100A400085E391E00C94C6021F920F920FB60F92AD
:100A500011242F933F938F939F93AF93BF938091D4
:100A6000A6019091A701A091A801B091A901309190
:100A7000A10123E0230F2D3758F50196A11DB11DCB
:100A80002093A1018093A6019093A701A093A801B0
:100A9000B093A9018091A2019091A301A091A4011A
:100AA000B091A5010196A11DB11D8093A201909363
:100AB000A301A093A401B093A501BF91AF919F9111
:100AC0008F913F912F910F900FBE0F901F9018950F
:100AD00026E8230F0296A11DB11DD2CFCF93DF933D
:100AE00000D000D000D0CDB7DEB7789484B5826056
:100AF00084BD84B5816084BD85B5826085BD85B5C2
:100B0000816085BD80916E00816080936E0010923F
:100B100081008091810082608093810080918100BA
:100B2000816080938100809180008160809380004B
:100B30008091B10084608093B1008091B0008160A9
:100B40008093B00080917A00846080937A008091D5
:100B50007A00826080937A0080917A00816080932D
:100B60007A0080917A00806880937A001092C100A8
:100B700082E00E947F0362E082E00E94A00180E4A4
:100B800091E00E94C60281E00E94200485E391E08A
:100B90000E94C60282E00E944901892BF1F46AE6B4
:100BA00071E089E192E00E94B0041092A00181E01E
:100BB000809318010E94770380E491E00E94C602AE
:100BC00081E00E94200485E391E00E94C60268EC67
:100BD00070E080E090E00E9401029090A0019110EE
:100BE00068C281E0809316028FB7F8944091A60105
:100BF0005091A7016091A8017091A9018FBF8091C8
:100C0000060290910702A0910802B0910902481BC8
:100C1000590B6A0B7B0B8091120290911302B0E08A
:100C2000A0E084179507A607B70708F01FC110E0DA
:100C300080911002181760F4E0910C02F0910D02FF
:100C4000E10FF11D62E080810E94A0011F5FF0CFE3
:100C5000812C80911102881608F063C0E82CF12CD9
:100C6000E0910E02F0910F02EE0DFF1D61E0808118
:100C70000E94A001E0910E02F0910F02EE0DFF1D07
:100C800060E080810E94720181E090E0A0E0B0E02D
:100C9000082C04C0880F991FAA1FBB1F0A94D2F703
:100CA0005C016C01C094D094712C80911002781674
:100CB00008F5072D10E0E0910C02F0910D02E00F15
:100CC000F11F80810E9449010C5F1F4F000F111F0F
:100CD000F801E655FE4F892B41F4808191818A29E4
:100CE0009B29918380837394E0CF808191818C21B3
:100CF0009D21F7CFE0910E02F0910F02EE0DFF1D46
:100D000061E080810E94720180910E0290910F0239
:100D1000E80EF91E60E0F70180810E94A001839433
:100D200098CF9AEAE92E91E0F92E86EE91E08701BC
:100D3000F801278D30A1232B31F4148E2FEF3FEFD4
:100D4000368F258F11A20A5F1F4F8017910781F7F9
:100D5000B12C80911002B81608F053C0A12CCB2CF6
:100D6000D12CCC0CDD1CA6014E545E4F6A012091A3
:100D70001102A21608F043C0F601608171810A2CAD
:100D800002C0769567950A94E2F7B29E900111240D
:100D90002A0D311DEAEAF1E080E0458D568D2417D9
:100DA000350709F423C28F5F36968A30B1F760FFAA
:100DB00024C0EAEAF1E090E080E0448D411118C0DF
:100DC000E0910A02F0910B02E20FF31F408156E01E
:100DD000589FF001599FF00D1124E655FE4F448FA6
:100DE000368F258F10A2178E61E00E94B00005C0DB
:100DF000019636968A30910501F7A394B8CFB39443
:100E0000A8CFF70181A18111982EF6E0EF0EF11C19
:100E1000E016F106B1F72FB7F8948091A6019091F2
:100E2000A701A091A801B091A9012FBF809306024C
:100E300090930702A0930802B09309029920B1F0A1
:100E40008091CB01882391F08091C9019091CA01D2
:100E5000019761F48091C60181110BC080E090E0A0
:100E6000892B09F497CE0E94000094CE10921602AE
:100E7000F5CF91E090931801833209F08EC08091F4
:100E80001D0290911E02089709F078C044E050E0DE
:100E900070E060E0CE0101960E94BA0489819A81D7
:100EA000412C512C3201009719F00E9486092B0128
:100EB00050929F0140929E01CE0101960E94D30262
:100EC00046E050E064E070E0CE0101960E94BA0472
:100ED00089819A81812C912C5401009719F00E94EC
:100EE00086094B01140190929D0180929C01CE01D4
:100EF00001960E94D30248E050E066E070E0CE0127
:100F000001960E94BA0489819A81C12CD12C760164
:100F1000009719F00E9486096B018601D0929B010F
:100F2000C0929A01CE0101960E94D30224E1421A96
:100F300025E0520A39EC4316510400F541E0841AC9
:100F400091085CE085169104C8F481E0C81AD108C4
:100F50009FE1C916D10490F4E7E02E16310454F055
:100F60000F31110559F0FCE02F16310419F40E3140
:100F7000110524F481E08093A00170CF0E947703D3
:100F80008CE491E00E94C60260ED77E080E090E0A2
:100F90000E9401020E94170561CF8A32D9F3282FDF
:100FA000082E000C330B205331092A30310508F08C
:100FB00055CF00911D0210911E020830110508F056
:100FC0004DCF89831A820F5F1F4FB80189E192E0EC
:100FD0000E945D04882399F02091190230911A0231
:100FE00080911D0290911E02BE016F5F7F4F820FA4
:100FF000931F0E940C0C10931E0200931D0281E0AF
:101000000E9420048AE591E00E94C60281E00E94CD
:10101000200480911D0290911E02892B09F41ECF9D
:1010200044E050E070E060E0CE0101960E94BA0416
:10103000CE0101960E946B02CE0101960E94D3025E
:1010400080911D0290911E02059708F407CF8BE650
:1010500091E00E94C60246E050E064E070E0CE01FC
:1010600001960E94BA04CE0101960E946B02CE0145
:1010700001960E94D30280911D0290911E02079753
:1010800008F4ECCE8BE691E00E94C60240911D026E
:1010900050911E0266E070E0CE0101960E94BA04F3
:1010A000CE0101960E946B02CE0101960E94D302EE
:1010B000D5CE80911801882309F4D0CE80919E016D
:1010C00090919F012CE735E0281B390B4DE651E04C
:1010D000249FC001259F900D349F900D11242091D5
:1010E0009C0130919D0142E050E0421B530B6EE1A8
:1010F000649F9001659F300D1124820F931F2091F2
:101100009A0130919B01ECE1F0E0E21BF30B8E0FB2
:101110009F1F092E000CAA0BBB0B80939601909386
:101120009701A0939801B093990180E00E94200458
:101130008DE691E00E94C60280919E0190919F01F0
:101140000E9434048BE691E00E94C60280919C01CB
:1011500090919D010A9724F484E791E00E94C602D1
:1011600080919C0190919D010E9434048BE691E056
:101170000E94C60280919A0190919B010A9724F4E3
:1011800084E791E00E94C60280919A0190919B01B0
:101190000E94340486E691E00E94C60281E00E942B
:1011A00020048091960190919701A0919801B091AF
:1011B0009901892B8A2B8B2B39F486E791E00E94C9
:1011C000C602109218014ACE87E891E00E94C6023A
:1011D0006091960170919701809198019091990189
:1011E0004AE00E94780289E691E0E9CF6170FDCD86
:1011F00010922202109221028DE291E0909320023F
:1012000080931F028CE0809323028FEF809324024F
:1012100087E08093250286E08093260285E0809314
:10122000270284E08093280283E0809329021092B1
:101230002A0210922B0210922C0210922D02109270
:101240002E0281E00E947F031092AC011092B00147
:101250001092AF011092B10183E291E09093AB0143
:101260008093AA01E6ECF1E01082148213821582C9
:10127000369682E0E230F807B9F784E091E0909387
:101280000D0280930C0280E091E090930F02809316
:101290000E0284E0809310028093110288E091E0B6
:1012A00090930B0280930A028AE090E090931302DD
:1012B0008093120284EF91E09093150280931402C0
:1012C0001092180210921702109206021092070252
:1012D00010920802109209021092160210921A023D
:1012E0001092190210921C0210921B0210921E0200
:1012F00010921D0250E040E06AE671E089E192E060
:101300000C94850489E192E00C94D3021F93FC01B4
:1013100099278827BC01E89411911032E9F319301C
:1013200010F01E30C8F31B3251F01D3249F468949E
:1013300006C00E94AD09610F711D811D911D1191A3
:1013400010531A30B0F33EF49095809570956195E6
:101350007F4F8F4F9F4F1F910895592F482F372F41
:10136000262F660F771F881F991F660F771F881F0C
:10137000991F620F731F841F951F660F771F881FA9
:10138000991F08952F923F924F925F926F927F9292
:101390008F929F92AF92BF92CF92DF92EF92FF9285
:1013A0000F931F93CF93DF93CDB7DEB7CA1BDB0B31
:1013B0000FB6F894DEBF0FBECDBF09942A883988D6
:1013C00048885F846E847D848C849B84AA84B984DD
:1013D000C884DF80EE80FD800C811B81AA81B981E9
:1013E000CE0FD11D0FB6F894DEBF0FBECDBFED01FD
:1013F0000895A1E21A2EAA1BBB1BFD010DC0AA1F56
:10140000BB1FEE1FFF1FA217B307E407F50720F06D
:10141000A21BB30BE40BF50B661F771F881F991FE8
:101420001A9469F760957095809590959B01AC0131
:10143000BD01CF010895EE0FFF1F0590F491E02D3F
:1014400009940F931F93CF93DF938230910510F48B
:1014500082E090E0E0913902F0913A0230E020E041
:10146000B0E0A0E0309799F42115310509F44AC0A5
:10147000281B390B24303105D8F58A819B816115F1
:10148000710589F1FB0193838283FE0111C04081C4
:1014900051810281138148175907E0F04817590715
:1014A00099F4109761F012960C93129713961C936F
:1014B0003296CF01DF91CF911F910F910895009344
:1014C000390210933A02F4CF2115310551F0421739
:1014D000530738F0A901DB019A01BD01DF01F801D2
:1014E000C1CFEF01F9CF90933A0280933902CDCF6B
:1014F000FE01E20FF31F819391932250310939834A
:101500002883D7CF2091370230913802232B41F422
:1015100020911B0130911C01309338022093370237
:101520002091190130911A012115310541F42DB78F
:101530003EB740911D0150911E01241B350BE091D7
:101540003702F0913802E217F307A0F42E1B3F0B8D
:101550002817390778F0AC014E5F5F4F2417350725
:1015600048F04E0F5F1F509338024093370281932B
:1015700091939FCFF0E0E0E09CCFCF93DF93009773
:10158000E9F0FC01329713821282A0913902B091E6
:101590003A02ED0130E020E01097A1F42081318182
:1015A000820F931F20913702309138022817390794
:1015B00009F061C0F0933802E0933702DF91CF91D8
:1015C0000895EA01CE17DF07E8F54A815B819E01A5
:1015D00041155105B1F7E901FB83EA83499159911E
:1015E000C40FD51FEC17FD0761F48081918102962D
:1015F000840F951FE90199838883828193819B835E
:101600008A83F0E0E0E012968D919C911397009709
:10161000B9F52D913C911197CD010296820F931F40
:1016200020913702309138022817390739F6309760
:1016300051F510923A0210923902B0933802A093F9
:101640003702BCCFD383C28340815181840F951F61
:10165000C817D90761F44E5F5F4F88819981480FA1
:10166000591F518340838A819B81938382832115F3
:10167000310509F0B0CFF0933A02E09339029ECFE2
:10168000FD01DC01C0CF13821282D7CFB0E0A0E011
:10169000ECE4FBE00C94C4098C01009751F4CB01FD
:1016A0000E94210A8C01C801CDB7DEB7E0E10C949D
:1016B000E009FC01E60FF71F9C0122503109E217F7
:1016C000F30708F49DC0D901CD91DC911197C6179D
:1016D000D70798F0C530D10530F3CE0104978617AF
:1016E000970708F3C61BD70B2297C193D1936D932D
:1016F0007C93CF010E94BD0AD6CF5B01AC1ABD0A14
:101700004C018C0E9D1EA0913902B0913A02512CD1
:10171000412CF12CE12C109731F5809137029091FA
:1017200038028815990509F05CC04616570608F07E
:1017300058C08091190190911A01009741F48DB71A
:101740009EB740911D0150911E01841B950BE81717
:10175000F90708F055C0F0933802E0933702F90119
:1017600071836083A0CF8D919C91119712966C909C
:10177000129713967C901397A815B90559F56C012B
:1017800042E0C40ED11CCA14DB0420F1AC014A199A
:101790005B09DA011296159780F062827382518399
:1017A0004083D9016D937C93E114F10471F0D7016A
:1017B0001396FC93EE93129776CF22968C0F9D1F73
:1017C000F90191838083F301EFCFF0933A02E09324
:1017D000390269CF4816590608F42C017D01D3015E
:1017E0009ACFCB010E94210A7C01009749F0AE01FB
:1017F000B8010E94030CC8010E94BD0A870153CFA3
:1018000010E000E050CFFB01DC0102C001900D921E
:1018100041505040D8F70895FB01DC0101900D9232
:101820000020E1F7089510E0C2E6D0E004C0FE0118
:101830000E941B0A2196C336D107C9F7F894FFCF3F
:1018400008090A0B100F0E1131323341343536427C
:10185000373839432A3023440100003B028000001E
:10186000000000330237023B02000000002E043E5D
:101870000275027402595959592F4D4D2F44440095
:10188000456E74657220446174653A00496E7661F4
:101890006C69642044617465210020202020202090
:1018A00020202020202020202020002F00446174B0
:1018B000653A20003000546F646179212020202097
:1018C00020202020202000446179732070617373F0
:0618D00065643A200000EF
:107E0000112484B714BE81FFF0D085E080938100F7
:107E100082E08093C00088E18093C10086E0809377
:107E2000C20080E18093C4008EE0C9D0259A86E02C
:107E300020E33CEF91E0309385002093840096BBD3
:107E4000B09BFECF1D9AA8958150A9F7CC24DD24C4
:107E500088248394B5E0AB2EA1E19A2EF3E0BF2EE7
:107E6000A2D0813461F49FD0082FAFD0023811F036
:107E7000013811F484E001C083E08DD089C08234E0
:107E800011F484E103C0853419F485E0A6D080C0E4
:107E9000853579F488D0E82EFF2485D0082F10E0AE
:107EA000102F00270E291F29000F111F8ED06801E7
:107EB0006FC0863521F484E090D080E0DECF843638
:107EC00009F040C070D06FD0082F6DD080E0C81688
:107ED00080E7D80618F4F601B7BEE895C0E0D1E017
:107EE00062D089930C17E1F7F0E0CF16F0E7DF06D8
:107EF00018F0F601B7BEE89568D007B600FCFDCFD4
:107F0000A601A0E0B1E02C9130E011968C91119780
:107F100090E0982F8827822B932B1296FA010C0160
:107F200087BEE89511244E5F5F4FF1E0A038BF0790
:107F300051F7F601A7BEE89507B600FCFDCF97BE46
:107F4000E89526C08437B1F42ED02DD0F82E2BD052
:107F50003CD0F601EF2C8F010F5F1F4F84911BD097
:107F6000EA94F801C1F70894C11CD11CFA94CF0C13
:107F7000D11C0EC0853739F428D08EE10CD085E9AC
:107F80000AD08FE07ACF813511F488E018D01DD067
:107F900080E101D065CF982F8091C00085FFFCCF94
:107FA0009093C60008958091C00087FFFCCF809118
:107FB000C00084FD01C0A8958091C6000895E0E648
:107FC000F0E098E1908380830895EDDF803219F02E
:107FD00088E0F5DFFFCF84E1DECF1F93182FE3DFCA
:107FE0001150E9F7F2DF1F91089580E0E8DFEE27F6
:047FF000FF270994CA
:027FFE00040479
:00000001FF
